{
  "_format": "hh-sol-artifact-1",
  "contractName": "BaultroGames",
  "sourceName": "contracts/BaultroGames.sol",
  "abi": [
    {
      "inputs": [
        {
          "internalType": "uint8",
          "name": "_platformFee",
          "type": "uint8"
        }
      ],
      "stateMutability": "nonpayable",
      "type": "constructor"
    },
    {
      "inputs": [],
      "name": "ERC721EnumerableForbiddenBatchMint",
      "type": "error"
    },
    {
      "inputs": [
        {
          "internalType": "address",
          "name": "sender",
          "type": "address"
        },
        {
          "internalType": "uint256",
          "name": "tokenId",
          "type": "uint256"
        },
        {
          "internalType": "address",
          "name": "owner",
          "type": "address"
        }
      ],
      "name": "ERC721IncorrectOwner",
      "type": "error"
    },
    {
      "inputs": [
        {
          "internalType": "address",
          "name": "operator",
          "type": "address"
        },
        {
          "internalType": "uint256",
          "name": "tokenId",
          "type": "uint256"
        }
      ],
      "name": "ERC721InsufficientApproval",
      "type": "error"
    },
    {
      "inputs": [
        {
          "internalType": "address",
          "name": "approver",
          "type": "address"
        }
      ],
      "name": "ERC721InvalidApprover",
      "type": "error"
    },
    {
      "inputs": [
        {
          "internalType": "address",
          "name": "operator",
          "type": "address"
        }
      ],
      "name": "ERC721InvalidOperator",
      "type": "error"
    },
    {
      "inputs": [
        {
          "internalType": "address",
          "name": "owner",
          "type": "address"
        }
      ],
      "name": "ERC721InvalidOwner",
      "type": "error"
    },
    {
      "inputs": [
        {
          "internalType": "address",
          "name": "receiver",
          "type": "address"
        }
      ],
      "name": "ERC721InvalidReceiver",
      "type": "error"
    },
    {
      "inputs": [
        {
          "internalType": "address",
          "name": "sender",
          "type": "address"
        }
      ],
      "name": "ERC721InvalidSender",
      "type": "error"
    },
    {
      "inputs": [
        {
          "internalType": "uint256",
          "name": "tokenId",
          "type": "uint256"
        }
      ],
      "name": "ERC721NonexistentToken",
      "type": "error"
    },
    {
      "inputs": [
        {
          "internalType": "address",
          "name": "owner",
          "type": "address"
        },
        {
          "internalType": "uint256",
          "name": "index",
          "type": "uint256"
        }
      ],
      "name": "ERC721OutOfBoundsIndex",
      "type": "error"
    },
    {
      "inputs": [
        {
          "internalType": "address",
          "name": "owner",
          "type": "address"
        }
      ],
      "name": "OwnableInvalidOwner",
      "type": "error"
    },
    {
      "inputs": [
        {
          "internalType": "address",
          "name": "account",
          "type": "address"
        }
      ],
      "name": "OwnableUnauthorizedAccount",
      "type": "error"
    },
    {
      "anonymous": false,
      "inputs": [
        {
          "indexed": true,
          "internalType": "address",
          "name": "owner",
          "type": "address"
        },
        {
          "indexed": true,
          "internalType": "address",
          "name": "approved",
          "type": "address"
        },
        {
          "indexed": true,
          "internalType": "uint256",
          "name": "tokenId",
          "type": "uint256"
        }
      ],
      "name": "Approval",
      "type": "event"
    },
    {
      "anonymous": false,
      "inputs": [
        {
          "indexed": true,
          "internalType": "address",
          "name": "owner",
          "type": "address"
        },
        {
          "indexed": true,
          "internalType": "address",
          "name": "operator",
          "type": "address"
        },
        {
          "indexed": false,
          "internalType": "bool",
          "name": "approved",
          "type": "bool"
        }
      ],
      "name": "ApprovalForAll",
      "type": "event"
    },
    {
      "anonymous": false,
      "inputs": [
        {
          "indexed": true,
          "internalType": "uint64",
          "name": "battleId",
          "type": "uint64"
        },
        {
          "indexed": true,
          "internalType": "address",
          "name": "creator",
          "type": "address"
        },
        {
          "indexed": false,
          "internalType": "uint8",
          "name": "difficulty",
          "type": "uint8"
        },
        {
          "indexed": false,
          "internalType": "uint256",
          "name": "stake",
          "type": "uint256"
        }
      ],
      "name": "BattleCreated",
      "type": "event"
    },
    {
      "anonymous": false,
      "inputs": [
        {
          "indexed": true,
          "internalType": "uint64",
          "name": "battleId",
          "type": "uint64"
        },
        {
          "indexed": true,
          "internalType": "address",
          "name": "creator",
          "type": "address"
        },
        {
          "indexed": false,
          "internalType": "bool",
          "name": "success",
          "type": "bool"
        },
        {
          "indexed": false,
          "internalType": "uint256",
          "name": "reward",
          "type": "uint256"
        }
      ],
      "name": "BattleResolved",
      "type": "event"
    },
    {
      "anonymous": false,
      "inputs": [
        {
          "indexed": true,
          "internalType": "address",
          "name": "player",
          "type": "address"
        },
        {
          "indexed": true,
          "internalType": "uint256",
          "name": "tokenId",
          "type": "uint256"
        },
        {
          "indexed": false,
          "internalType": "uint256",
          "name": "day",
          "type": "uint256"
        }
      ],
      "name": "DailyParticipationNFTMinted",
      "type": "event"
    },
    {
      "anonymous": false,
      "inputs": [
        {
          "indexed": true,
          "internalType": "uint64",
          "name": "matchId",
          "type": "uint64"
        },
        {
          "indexed": true,
          "internalType": "address",
          "name": "winner",
          "type": "address"
        },
        {
          "indexed": false,
          "internalType": "uint256",
          "name": "amount",
          "type": "uint256"
        },
        {
          "indexed": false,
          "internalType": "string",
          "name": "verificationHash",
          "type": "string"
        }
      ],
      "name": "MatchCompleted",
      "type": "event"
    },
    {
      "anonymous": false,
      "inputs": [
        {
          "indexed": true,
          "internalType": "uint64",
          "name": "matchId",
          "type": "uint64"
        },
        {
          "indexed": true,
          "internalType": "address",
          "name": "creator",
          "type": "address"
        },
        {
          "indexed": true,
          "internalType": "address",
          "name": "opponent",
          "type": "address"
        },
        {
          "indexed": false,
          "internalType": "string",
          "name": "gameMode",
          "type": "string"
        },
        {
          "indexed": false,
          "internalType": "uint256",
          "name": "stake",
          "type": "uint256"
        }
      ],
      "name": "MatchCreated",
      "type": "event"
    },
    {
      "anonymous": false,
      "inputs": [
        {
          "indexed": true,
          "internalType": "uint64",
          "name": "matchId",
          "type": "uint64"
        },
        {
          "indexed": true,
          "internalType": "address",
          "name": "joiner",
          "type": "address"
        },
        {
          "indexed": true,
          "internalType": "address",
          "name": "creator",
          "type": "address"
        },
        {
          "indexed": false,
          "internalType": "uint256",
          "name": "stake",
          "type": "uint256"
        }
      ],
      "name": "MatchJoined",
      "type": "event"
    },
    {
      "anonymous": false,
      "inputs": [
        {
          "indexed": true,
          "internalType": "address",
          "name": "previousOwner",
          "type": "address"
        },
        {
          "indexed": true,
          "internalType": "address",
          "name": "newOwner",
          "type": "address"
        }
      ],
      "name": "OwnershipTransferred",
      "type": "event"
    },
    {
      "anonymous": false,
      "inputs": [
        {
          "indexed": true,
          "internalType": "uint64",
          "name": "raidId",
          "type": "uint64"
        },
        {
          "indexed": true,
          "internalType": "address",
          "name": "attacker",
          "type": "address"
        },
        {
          "indexed": false,
          "internalType": "uint32",
          "name": "attemptNumber",
          "type": "uint32"
        },
        {
          "indexed": false,
          "internalType": "uint256",
          "name": "fee",
          "type": "uint256"
        }
      ],
      "name": "RaidAttempted",
      "type": "event"
    },
    {
      "anonymous": false,
      "inputs": [
        {
          "indexed": true,
          "internalType": "uint64",
          "name": "raidId",
          "type": "uint64"
        },
        {
          "indexed": true,
          "internalType": "address",
          "name": "attacker",
          "type": "address"
        },
        {
          "indexed": true,
          "internalType": "address",
          "name": "creator",
          "type": "address"
        },
        {
          "indexed": false,
          "internalType": "uint256",
          "name": "creatorReward",
          "type": "uint256"
        },
        {
          "indexed": false,
          "internalType": "uint256",
          "name": "attackerReward",
          "type": "uint256"
        }
      ],
      "name": "RaidCompleted",
      "type": "event"
    },
    {
      "anonymous": false,
      "inputs": [
        {
          "indexed": true,
          "internalType": "uint64",
          "name": "raidId",
          "type": "uint64"
        },
        {
          "indexed": true,
          "internalType": "address",
          "name": "creator",
          "type": "address"
        },
        {
          "indexed": false,
          "internalType": "uint256",
          "name": "stake",
          "type": "uint256"
        },
        {
          "indexed": false,
          "internalType": "uint8",
          "name": "difficulty",
          "type": "uint8"
        }
      ],
      "name": "RaidPoolCreated",
      "type": "event"
    },
    {
      "anonymous": false,
      "inputs": [
        {
          "indexed": true,
          "internalType": "address",
          "name": "from",
          "type": "address"
        },
        {
          "indexed": true,
          "internalType": "address",
          "name": "to",
          "type": "address"
        },
        {
          "indexed": true,
          "internalType": "uint256",
          "name": "tokenId",
          "type": "uint256"
        }
      ],
      "name": "Transfer",
      "type": "event"
    },
    {
      "inputs": [
        {
          "internalType": "address",
          "name": "to",
          "type": "address"
        },
        {
          "internalType": "uint256",
          "name": "tokenId",
          "type": "uint256"
        }
      ],
      "name": "approve",
      "outputs": [],
      "stateMutability": "nonpayable",
      "type": "function"
    },
    {
      "inputs": [
        {
          "internalType": "uint64",
          "name": "raidId",
          "type": "uint64"
        }
      ],
      "name": "attemptRaid",
      "outputs": [
        {
          "internalType": "bool",
          "name": "",
          "type": "bool"
        }
      ],
      "stateMutability": "payable",
      "type": "function"
    },
    {
      "inputs": [
        {
          "internalType": "address",
          "name": "owner",
          "type": "address"
        }
      ],
      "name": "balanceOf",
      "outputs": [
        {
          "internalType": "uint256",
          "name": "",
          "type": "uint256"
        }
      ],
      "stateMutability": "view",
      "type": "function"
    },
    {
      "inputs": [
        {
          "internalType": "uint64",
          "name": "",
          "type": "uint64"
        }
      ],
      "name": "battles",
      "outputs": [
        {
          "internalType": "uint64",
          "name": "id",
          "type": "uint64"
        },
        {
          "internalType": "address",
          "name": "creator",
          "type": "address"
        },
        {
          "internalType": "uint8",
          "name": "difficulty",
          "type": "uint8"
        },
        {
          "internalType": "uint256",
          "name": "stake",
          "type": "uint256"
        },
        {
          "internalType": "bool",
          "name": "completed",
          "type": "bool"
        },
        {
          "internalType": "bool",
          "name": "success",
          "type": "bool"
        },
        {
          "internalType": "uint64",
          "name": "createdAt",
          "type": "uint64"
        },
        {
          "internalType": "uint64",
          "name": "completedAt",
          "type": "uint64"
        }
      ],
      "stateMutability": "view",
      "type": "function"
    },
    {
      "inputs": [],
      "name": "battlesCount",
      "outputs": [
        {
          "internalType": "uint64",
          "name": "",
          "type": "uint64"
        }
      ],
      "stateMutability": "view",
      "type": "function"
    },
    {
      "inputs": [
        {
          "internalType": "uint64",
          "name": "raidId",
          "type": "uint64"
        },
        {
          "internalType": "address",
          "name": "attackerId",
          "type": "address"
        },
        {
          "internalType": "string",
          "name": "verificationHash",
          "type": "string"
        }
      ],
      "name": "completeRaid",
      "outputs": [
        {
          "internalType": "bool",
          "name": "",
          "type": "bool"
        }
      ],
      "stateMutability": "nonpayable",
      "type": "function"
    },
    {
      "inputs": [
        {
          "internalType": "uint16",
          "name": "difficulty",
          "type": "uint16"
        }
      ],
      "name": "createBattle",
      "outputs": [
        {
          "internalType": "uint64",
          "name": "",
          "type": "uint64"
        }
      ],
      "stateMutability": "payable",
      "type": "function"
    },
    {
      "inputs": [
        {
          "internalType": "address",
          "name": "opponentId",
          "type": "address"
        },
        {
          "internalType": "string",
          "name": "gameMode",
          "type": "string"
        }
      ],
      "name": "createMatch",
      "outputs": [
        {
          "internalType": "uint64",
          "name": "",
          "type": "uint64"
        }
      ],
      "stateMutability": "payable",
      "type": "function"
    },
    {
      "inputs": [
        {
          "internalType": "uint8",
          "name": "difficulty",
          "type": "uint8"
        }
      ],
      "name": "createRaid",
      "outputs": [
        {
          "internalType": "uint64",
          "name": "",
          "type": "uint64"
        }
      ],
      "stateMutability": "payable",
      "type": "function"
    },
    {
      "inputs": [
        {
          "internalType": "uint64",
          "name": "matchId",
          "type": "uint64"
        },
        {
          "internalType": "address",
          "name": "winnerId",
          "type": "address"
        },
        {
          "internalType": "string",
          "name": "verificationHash",
          "type": "string"
        }
      ],
      "name": "endMatch",
      "outputs": [
        {
          "internalType": "bool",
          "name": "",
          "type": "bool"
        }
      ],
      "stateMutability": "nonpayable",
      "type": "function"
    },
    {
      "inputs": [
        {
          "internalType": "uint256",
          "name": "tokenId",
          "type": "uint256"
        }
      ],
      "name": "getApproved",
      "outputs": [
        {
          "internalType": "address",
          "name": "",
          "type": "address"
        }
      ],
      "stateMutability": "view",
      "type": "function"
    },
    {
      "inputs": [
        {
          "internalType": "uint64",
          "name": "battleId",
          "type": "uint64"
        }
      ],
      "name": "getBattle",
      "outputs": [
        {
          "components": [
            {
              "internalType": "uint64",
              "name": "id",
              "type": "uint64"
            },
            {
              "internalType": "address",
              "name": "creator",
              "type": "address"
            },
            {
              "internalType": "uint8",
              "name": "difficulty",
              "type": "uint8"
            },
            {
              "internalType": "uint256",
              "name": "stake",
              "type": "uint256"
            },
            {
              "internalType": "bool",
              "name": "completed",
              "type": "bool"
            },
            {
              "internalType": "bool",
              "name": "success",
              "type": "bool"
            },
            {
              "internalType": "uint64",
              "name": "createdAt",
              "type": "uint64"
            },
            {
              "internalType": "uint64",
              "name": "completedAt",
              "type": "uint64"
            }
          ],
          "internalType": "struct BaultroGames.Battle",
          "name": "",
          "type": "tuple"
        }
      ],
      "stateMutability": "view",
      "type": "function"
    },
    {
      "inputs": [
        {
          "internalType": "uint64",
          "name": "matchId",
          "type": "uint64"
        }
      ],
      "name": "getMatch",
      "outputs": [
        {
          "components": [
            {
              "internalType": "uint64",
              "name": "id",
              "type": "uint64"
            },
            {
              "internalType": "address",
              "name": "creator",
              "type": "address"
            },
            {
              "internalType": "address",
              "name": "opponent",
              "type": "address"
            },
            {
              "internalType": "string",
              "name": "gameMode",
              "type": "string"
            },
            {
              "internalType": "uint256",
              "name": "stake",
              "type": "uint256"
            },
            {
              "internalType": "address",
              "name": "winner",
              "type": "address"
            },
            {
              "internalType": "uint64",
              "name": "createdAt",
              "type": "uint64"
            },
            {
              "internalType": "uint64",
              "name": "completedAt",
              "type": "uint64"
            },
            {
              "internalType": "string",
              "name": "verificationHash",
              "type": "string"
            }
          ],
          "internalType": "struct BaultroGames.Match",
          "name": "",
          "type": "tuple"
        }
      ],
      "stateMutability": "view",
      "type": "function"
    },
    {
      "inputs": [
        {
          "internalType": "uint64",
          "name": "skip",
          "type": "uint64"
        },
        {
          "internalType": "uint64",
          "name": "limit",
          "type": "uint64"
        }
      ],
      "name": "getMatches",
      "outputs": [
        {
          "components": [
            {
              "internalType": "uint64",
              "name": "id",
              "type": "uint64"
            },
            {
              "internalType": "address",
              "name": "creator",
              "type": "address"
            },
            {
              "internalType": "address",
              "name": "opponent",
              "type": "address"
            },
            {
              "internalType": "string",
              "name": "gameMode",
              "type": "string"
            },
            {
              "internalType": "uint256",
              "name": "stake",
              "type": "uint256"
            },
            {
              "internalType": "address",
              "name": "winner",
              "type": "address"
            },
            {
              "internalType": "uint64",
              "name": "createdAt",
              "type": "uint64"
            },
            {
              "internalType": "uint64",
              "name": "completedAt",
              "type": "uint64"
            },
            {
              "internalType": "string",
              "name": "verificationHash",
              "type": "string"
            }
          ],
          "internalType": "struct BaultroGames.Match[]",
          "name": "",
          "type": "tuple[]"
        }
      ],
      "stateMutability": "view",
      "type": "function"
    },
    {
      "inputs": [
        {
          "internalType": "uint64",
          "name": "raidId",
          "type": "uint64"
        }
      ],
      "name": "getRaid",
      "outputs": [
        {
          "components": [
            {
              "internalType": "uint64",
              "name": "id",
              "type": "uint64"
            },
            {
              "internalType": "address",
              "name": "creator",
              "type": "address"
            },
            {
              "internalType": "uint256",
              "name": "stake",
              "type": "uint256"
            },
            {
              "internalType": "uint32",
              "name": "attempts",
              "type": "uint32"
            },
            {
              "internalType": "uint8",
              "name": "difficulty",
              "type": "uint8"
            },
            {
              "internalType": "bool",
              "name": "completed",
              "type": "bool"
            },
            {
              "internalType": "uint64",
              "name": "createdAt",
              "type": "uint64"
            }
          ],
          "internalType": "struct BaultroGames.RaidPool",
          "name": "",
          "type": "tuple"
        }
      ],
      "stateMutability": "view",
      "type": "function"
    },
    {
      "inputs": [
        {
          "internalType": "uint64",
          "name": "skip",
          "type": "uint64"
        },
        {
          "internalType": "uint64",
          "name": "limit",
          "type": "uint64"
        }
      ],
      "name": "getRaids",
      "outputs": [
        {
          "components": [
            {
              "internalType": "uint64",
              "name": "id",
              "type": "uint64"
            },
            {
              "internalType": "address",
              "name": "creator",
              "type": "address"
            },
            {
              "internalType": "uint256",
              "name": "stake",
              "type": "uint256"
            },
            {
              "internalType": "uint32",
              "name": "attempts",
              "type": "uint32"
            },
            {
              "internalType": "uint8",
              "name": "difficulty",
              "type": "uint8"
            },
            {
              "internalType": "bool",
              "name": "completed",
              "type": "bool"
            },
            {
              "internalType": "uint64",
              "name": "createdAt",
              "type": "uint64"
            }
          ],
          "internalType": "struct BaultroGames.RaidPool[]",
          "name": "",
          "type": "tuple[]"
        }
      ],
      "stateMutability": "view",
      "type": "function"
    },
    {
      "inputs": [
        {
          "internalType": "address",
          "name": "owner",
          "type": "address"
        },
        {
          "internalType": "address",
          "name": "operator",
          "type": "address"
        }
      ],
      "name": "isApprovedForAll",
      "outputs": [
        {
          "internalType": "bool",
          "name": "",
          "type": "bool"
        }
      ],
      "stateMutability": "view",
      "type": "function"
    },
    {
      "inputs": [
        {
          "internalType": "address",
          "name": "player",
          "type": "address"
        }
      ],
      "name": "isEligibleForDailyNFT",
      "outputs": [
        {
          "internalType": "bool",
          "name": "",
          "type": "bool"
        }
      ],
      "stateMutability": "view",
      "type": "function"
    },
    {
      "inputs": [
        {
          "internalType": "uint64",
          "name": "matchId",
          "type": "uint64"
        }
      ],
      "name": "joinMatch",
      "outputs": [
        {
          "internalType": "bool",
          "name": "",
          "type": "bool"
        }
      ],
      "stateMutability": "payable",
      "type": "function"
    },
    {
      "inputs": [
        {
          "internalType": "address",
          "name": "",
          "type": "address"
        }
      ],
      "name": "lastParticipationDay",
      "outputs": [
        {
          "internalType": "uint256",
          "name": "",
          "type": "uint256"
        }
      ],
      "stateMutability": "view",
      "type": "function"
    },
    {
      "inputs": [
        {
          "internalType": "uint64",
          "name": "",
          "type": "uint64"
        }
      ],
      "name": "matches",
      "outputs": [
        {
          "internalType": "uint64",
          "name": "id",
          "type": "uint64"
        },
        {
          "internalType": "address",
          "name": "creator",
          "type": "address"
        },
        {
          "internalType": "address",
          "name": "opponent",
          "type": "address"
        },
        {
          "internalType": "string",
          "name": "gameMode",
          "type": "string"
        },
        {
          "internalType": "uint256",
          "name": "stake",
          "type": "uint256"
        },
        {
          "internalType": "address",
          "name": "winner",
          "type": "address"
        },
        {
          "internalType": "uint64",
          "name": "createdAt",
          "type": "uint64"
        },
        {
          "internalType": "uint64",
          "name": "completedAt",
          "type": "uint64"
        },
        {
          "internalType": "string",
          "name": "verificationHash",
          "type": "string"
        }
      ],
      "stateMutability": "view",
      "type": "function"
    },
    {
      "inputs": [],
      "name": "matchesCount",
      "outputs": [
        {
          "internalType": "uint64",
          "name": "",
          "type": "uint64"
        }
      ],
      "stateMutability": "view",
      "type": "function"
    },
    {
      "inputs": [],
      "name": "mintDailyParticipationNFT",
      "outputs": [
        {
          "internalType": "uint256",
          "name": "",
          "type": "uint256"
        }
      ],
      "stateMutability": "nonpayable",
      "type": "function"
    },
    {
      "inputs": [],
      "name": "name",
      "outputs": [
        {
          "internalType": "string",
          "name": "",
          "type": "string"
        }
      ],
      "stateMutability": "view",
      "type": "function"
    },
    {
      "inputs": [],
      "name": "owner",
      "outputs": [
        {
          "internalType": "address",
          "name": "",
          "type": "address"
        }
      ],
      "stateMutability": "view",
      "type": "function"
    },
    {
      "inputs": [
        {
          "internalType": "uint256",
          "name": "tokenId",
          "type": "uint256"
        }
      ],
      "name": "ownerOf",
      "outputs": [
        {
          "internalType": "address",
          "name": "",
          "type": "address"
        }
      ],
      "stateMutability": "view",
      "type": "function"
    },
    {
      "inputs": [],
      "name": "platformFee",
      "outputs": [
        {
          "internalType": "uint8",
          "name": "",
          "type": "uint8"
        }
      ],
      "stateMutability": "view",
      "type": "function"
    },
    {
      "inputs": [
        {
          "internalType": "uint64",
          "name": "",
          "type": "uint64"
        }
      ],
      "name": "raidPools",
      "outputs": [
        {
          "internalType": "uint64",
          "name": "id",
          "type": "uint64"
        },
        {
          "internalType": "address",
          "name": "creator",
          "type": "address"
        },
        {
          "internalType": "uint256",
          "name": "stake",
          "type": "uint256"
        },
        {
          "internalType": "uint32",
          "name": "attempts",
          "type": "uint32"
        },
        {
          "internalType": "uint8",
          "name": "difficulty",
          "type": "uint8"
        },
        {
          "internalType": "bool",
          "name": "completed",
          "type": "bool"
        },
        {
          "internalType": "uint64",
          "name": "createdAt",
          "type": "uint64"
        }
      ],
      "stateMutability": "view",
      "type": "function"
    },
    {
      "inputs": [],
      "name": "raidsCount",
      "outputs": [
        {
          "internalType": "uint64",
          "name": "",
          "type": "uint64"
        }
      ],
      "stateMutability": "view",
      "type": "function"
    },
    {
      "inputs": [],
      "name": "renounceOwnership",
      "outputs": [],
      "stateMutability": "nonpayable",
      "type": "function"
    },
    {
      "inputs": [
        {
          "internalType": "uint64",
          "name": "battleId",
          "type": "uint64"
        },
        {
          "internalType": "bool",
          "name": "success",
          "type": "bool"
        }
      ],
      "name": "resolveBattle",
      "outputs": [
        {
          "internalType": "bool",
          "name": "",
          "type": "bool"
        }
      ],
      "stateMutability": "nonpayable",
      "type": "function"
    },
    {
      "inputs": [
        {
          "internalType": "address",
          "name": "from",
          "type": "address"
        },
        {
          "internalType": "address",
          "name": "to",
          "type": "address"
        },
        {
          "internalType": "uint256",
          "name": "tokenId",
          "type": "uint256"
        }
      ],
      "name": "safeTransferFrom",
      "outputs": [],
      "stateMutability": "nonpayable",
      "type": "function"
    },
    {
      "inputs": [
        {
          "internalType": "address",
          "name": "from",
          "type": "address"
        },
        {
          "internalType": "address",
          "name": "to",
          "type": "address"
        },
        {
          "internalType": "uint256",
          "name": "tokenId",
          "type": "uint256"
        },
        {
          "internalType": "bytes",
          "name": "data",
          "type": "bytes"
        }
      ],
      "name": "safeTransferFrom",
      "outputs": [],
      "stateMutability": "nonpayable",
      "type": "function"
    },
    {
      "inputs": [
        {
          "internalType": "address",
          "name": "operator",
          "type": "address"
        },
        {
          "internalType": "bool",
          "name": "approved",
          "type": "bool"
        }
      ],
      "name": "setApprovalForAll",
      "outputs": [],
      "stateMutability": "nonpayable",
      "type": "function"
    },
    {
      "inputs": [
        {
          "internalType": "string",
          "name": "baseURI",
          "type": "string"
        }
      ],
      "name": "setBaseURI",
      "outputs": [],
      "stateMutability": "nonpayable",
      "type": "function"
    },
    {
      "inputs": [
        {
          "internalType": "uint256",
          "name": "tokenId",
          "type": "uint256"
        },
        {
          "internalType": "string",
          "name": "tokenURI",
          "type": "string"
        }
      ],
      "name": "setTokenURI",
      "outputs": [],
      "stateMutability": "nonpayable",
      "type": "function"
    },
    {
      "inputs": [
        {
          "internalType": "bytes4",
          "name": "interfaceId",
          "type": "bytes4"
        }
      ],
      "name": "supportsInterface",
      "outputs": [
        {
          "internalType": "bool",
          "name": "",
          "type": "bool"
        }
      ],
      "stateMutability": "view",
      "type": "function"
    },
    {
      "inputs": [],
      "name": "symbol",
      "outputs": [
        {
          "internalType": "string",
          "name": "",
          "type": "string"
        }
      ],
      "stateMutability": "view",
      "type": "function"
    },
    {
      "inputs": [
        {
          "internalType": "uint256",
          "name": "index",
          "type": "uint256"
        }
      ],
      "name": "tokenByIndex",
      "outputs": [
        {
          "internalType": "uint256",
          "name": "",
          "type": "uint256"
        }
      ],
      "stateMutability": "view",
      "type": "function"
    },
    {
      "inputs": [
        {
          "internalType": "address",
          "name": "owner",
          "type": "address"
        },
        {
          "internalType": "uint256",
          "name": "index",
          "type": "uint256"
        }
      ],
      "name": "tokenOfOwnerByIndex",
      "outputs": [
        {
          "internalType": "uint256",
          "name": "",
          "type": "uint256"
        }
      ],
      "stateMutability": "view",
      "type": "function"
    },
    {
      "inputs": [
        {
          "internalType": "uint256",
          "name": "tokenId",
          "type": "uint256"
        }
      ],
      "name": "tokenURI",
      "outputs": [
        {
          "internalType": "string",
          "name": "",
          "type": "string"
        }
      ],
      "stateMutability": "view",
      "type": "function"
    },
    {
      "inputs": [],
      "name": "totalSupply",
      "outputs": [
        {
          "internalType": "uint256",
          "name": "",
          "type": "uint256"
        }
      ],
      "stateMutability": "view",
      "type": "function"
    },
    {
      "inputs": [
        {
          "internalType": "address",
          "name": "from",
          "type": "address"
        },
        {
          "internalType": "address",
          "name": "to",
          "type": "address"
        },
        {
          "internalType": "uint256",
          "name": "tokenId",
          "type": "uint256"
        }
      ],
      "name": "transferFrom",
      "outputs": [],
      "stateMutability": "nonpayable",
      "type": "function"
    },
    {
      "inputs": [
        {
          "internalType": "address",
          "name": "newOwner",
          "type": "address"
        }
      ],
      "name": "transferOwnership",
      "outputs": [],
      "stateMutability": "nonpayable",
      "type": "function"
    },
    {
      "inputs": [],
      "name": "withdraw",
      "outputs": [
        {
          "internalType": "bool",
          "name": "",
          "type": "bool"
        }
      ],
      "stateMutability": "nonpayable",
      "type": "function"
    }
  ],
  "bytecode": "0x60806040523480156200001157600080fd5b5060405162004af738038062004af783398101604081905262000034916200021d565b336040518060400160405280601481526020017f4261756c74726f50617274696369706174696f6e000000000000000000000000815250604051806040016040528060048152602001634250544360e01b8152508160009081620000999190620002ee565b506001620000a88282620002ee565b5050506001600160a01b038116620000db57604051631e4fbdf760e01b8152600060048201526024015b60405180910390fd5b620000e681620001cb565b5060c88160ff1611156200013d5760405162461bcd60e51b815260206004820152601e60248201527f506c6174666f726d206665652063616e6e6f74206578636565642032302500006044820152606401620000d2565b60008160ff16116200015157600a62000153565b805b600c80546001600160c81b031916600160c01b60ff93909316929092026001600160c01b03191691909117905560408051808201909152601c81527f68747470733a2f2f6261756c74726f2e636f6d2f6170692f6e66742f000000006020820152600e90620001c39082620002ee565b5050620003ba565b600a80546001600160a01b038381166001600160a01b0319831681179093556040519116919082907f8be0079c531659141344cd1fd0a4f28419497f9722a3daafe3b4186f6b6457e090600090a35050565b6000602082840312156200023057600080fd5b815160ff811681146200024257600080fd5b9392505050565b634e487b7160e01b600052604160045260246000fd5b600181811c908216806200027457607f821691505b6020821081036200029557634e487b7160e01b600052602260045260246000fd5b50919050565b601f821115620002e957600081815260208120601f850160051c81016020861015620002c45750805b601f850160051c820191505b81811015620002e557828155600101620002d0565b5050505b505050565b81516001600160401b038111156200030a576200030a62000249565b62000322816200031b84546200025f565b846200029b565b602080601f8311600181146200035a5760008415620003415750858301515b600019600386901b1c1916600185901b178555620002e5565b600085815260208120601f198616915b828110156200038b578886015182559484019460019091019084016200036a565b5085821015620003aa5787850151600019600388901b60f8161c191681555b5050505050600190811b01905550565b61472d80620003ca6000396000f3fe6080604052600436106102725760003560e01c80635664da601161014f578063b88d4fde116100c1578063e6a571091161007a578063e6a5710914610936578063e985e9c514610949578063edc17a0614610969578063ef29a3cc1461097e578063f2fde38b146109ab578063f8f80802146109cb57600080fd5b8063b88d4fde14610862578063c3e58a2914610882578063c819f7b2146108a2578063c87b56dd146108cf578063df71971b146108ef578063e2639df81461090f57600080fd5b8063715018a611610113578063715018a6146107ad5780638d51fa72146107c25780638da5cb5b146107e257806395d89b4114610800578063a22cb46514610815578063a53389691461083557600080fd5b80635664da6014610589578063579b8e22146105b65780636352211e146106975780636a713456146106b757806370a082311461078d57600080fd5b806326232a2e116101e85780633b92c4d3116101ac5780633b92c4d3146104d45780633ccfd60b1461050157806342842e0e146105165780634f6ccce7146105365780635427f3fb1461055657806355f804b31461056957600080fd5b806326232a2e14610419578063279d0a191461044c5780632c011cc91461045f5780632f745c59146104945780633b8d72d2146104b457600080fd5b806311c9080d1161023a57806311c9080d1461033b57806311e4695a1461037a578063162094c4146103a757806318160ddd146103c75780631d0033b5146103e657806323b872dd146103f957600080fd5b806301ffc9a71461027757806306fdde03146102ac578063081812fc146102ce578063095ea7b3146103065780630d4acd1614610328575b600080fd5b34801561028357600080fd5b50610297610292366004613a9b565b6109eb565b60405190151581526020015b60405180910390f35b3480156102b857600080fd5b506102c1610a16565b6040516102a39190613b0f565b3480156102da57600080fd5b506102ee6102e9366004613b22565b610aa8565b6040516001600160a01b0390911681526020016102a3565b34801561031257600080fd5b50610326610321366004613b57565b610ad1565b005b610297610336366004613b98565b610ae0565b34801561034757600080fd5b50600c5461036290600160801b90046001600160401b031681565b6040516001600160401b0390911681526020016102a3565b34801561038657600080fd5b5061039a610395366004613bb3565b610cbd565b6040516102a39190613cc5565b3480156103b357600080fd5b506103266103c2366004613dd2565b610fbf565b3480156103d357600080fd5b506008545b6040519081526020016102a3565b6103626103f4366004613e18565b61103f565b34801561040557600080fd5b50610326610414366004613e3c565b6112bc565b34801561042557600080fd5b50600c5461043a90600160c01b900460ff1681565b60405160ff90911681526020016102a3565b61036261045a366004613e78565b611347565b34801561046b57600080fd5b5061047f61047a366004613b98565b611755565b6040516102a399989796959493929190613eaf565b3480156104a057600080fd5b506103d86104af366004613b57565b6118e2565b3480156104c057600080fd5b506102976104cf366004613f2e565b611947565b3480156104e057600080fd5b506104f46104ef366004613b98565b611bfb565b6040516102a39190613f8b565b34801561050d57600080fd5b50610297611dfc565b34801561052257600080fd5b50610326610531366004613e3c565b611e5a565b34801561054257600080fd5b506103d8610551366004613b22565b611e75565b610297610564366004613b98565b611ece565b34801561057557600080fd5b50610326610584366004613f9e565b61209f565b34801561059557600080fd5b506105a96105a4366004613b98565b6120b3565b6040516102a39190614033565b3480156105c257600080fd5b5061063a6105d1366004613b98565b6012602052600090815260409020805460018201546002909201546001600160401b03808316936001600160a01b03600160401b8504169360ff600160e01b909104811693919282821692610100810490921691620100008104821691600160501b9091041688565b604080516001600160401b03998a1681526001600160a01b03909816602089015260ff9096169587019590955260608601939093529015156080850152151560a0840152831660c08301529190911660e0820152610100016102a3565b3480156106a357600080fd5b506102ee6106b2366004613b22565b61219b565b3480156106c357600080fd5b506107396106d2366004613b98565b6011602052600090815260409020805460018201546002909201546001600160401b0380831693600160401b9093046001600160a01b0316929163ffffffff811691640100000000820460ff90811692600160281b810490911691600160301b9091041687565b604080516001600160401b0398891681526001600160a01b03909716602088015286019490945263ffffffff909216606085015260ff166080840152151560a08301529190911660c082015260e0016102a3565b34801561079957600080fd5b506103d86107a8366004614041565b6121a6565b3480156107b957600080fd5b506103266121ee565b3480156107ce57600080fd5b50600c54610362906001600160401b031681565b3480156107ee57600080fd5b50600a546001600160a01b03166102ee565b34801561080c57600080fd5b506102c1612202565b34801561082157600080fd5b5061032661083036600461406c565b612211565b34801561084157600080fd5b50610855610850366004613b98565b61221c565b6040516102a39190614096565b34801561086e57600080fd5b5061032661087d36600461412f565b61233a565b34801561088e57600080fd5b5061029761089d366004613f2e565b612352565b3480156108ae57600080fd5b506108c26108bd366004613bb3565b612608565b6040516102a391906141aa565b3480156108db57600080fd5b506102c16108ea366004613b22565b612815565b3480156108fb57600080fd5b5061029761090a3660046141f8565b612958565b34801561091b57600080fd5b50600c5461036290600160401b90046001600160401b031681565b610362610944366004614214565b612ba1565b34801561095557600080fd5b50610297610964366004614237565b612df7565b34801561097557600080fd5b506103d8612e25565b34801561098a57600080fd5b506103d8610999366004614041565b600d6020526000908152604090205481565b3480156109b757600080fd5b506103266109c6366004614041565b612f16565b3480156109d757600080fd5b506102976109e6366004614041565b612f54565b60006001600160e01b0319821663780e9d6360e01b1480610a105750610a1082612f88565b92915050565b606060008054610a2590614261565b80601f0160208091040260200160405190810160405280929190818152602001828054610a5190614261565b8015610a9e5780601f10610a7357610100808354040283529160200191610a9e565b820191906000526020600020905b815481529060010190602001808311610a8157829003601f168201915b5050505050905090565b6000610ab382612fd8565b506000828152600460205260409020546001600160a01b0316610a10565b610adc828233613011565b5050565b6001600160401b038082166000818152601060205260408120805491939092911614610b275760405162461bcd60e51b8152600401610b1e9061429b565b60405180910390fd5b600481015433906001600160a01b031615610b7e5760405162461bcd60e51b815260206004820152601760248201527613585d18da08185b1c9958591e4818dbdb5c1b195d1959604a1b6044820152606401610b1e565b60018201546001600160a01b03828116911614610be95760405162461bcd60e51b815260206004820152602360248201527f4f6e6c7920746865206368616c6c656e67656420706c617965722063616e206a60448201526237b4b760e91b6064820152608401610b1e565b8160030154341015610c565760405162461bcd60e51b815260206004820152603060248201527f4465706f736974206d757374206d61746368206f72206578636565642074686560448201526f206368616c6c656e6765207374616b6560801b6064820152608401610b1e565b81546040516001600160a01b03600160401b9092048216918316906001600160401b038716907f554678d81968ce08342c84684377453bb348fbaae39fea1a3479b97c28d0593e90610cab9034815260200190565b60405180910390a45060019392505050565b600c5460609083906001600160401b039081169082161115610ce75750600c546001600160401b03165b6000610cf384836142da565b600c549091506001600160401b039081169082161115610d1b5750600c546001600160401b03165b6000610d2783836142fa565b6001600160401b03166001600160401b03811115610d4757610d47613d27565b604051908082528060200260200182016040528015610d8057816020015b610d6d613a37565b815260200190600190039081610d655790505b509050825b826001600160401b0316816001600160401b03161015610fb55760106000610dae8360016142da565b6001600160401b0390811682526020808301939093526040918201600020825161012081018452815492831681526001600160a01b03600160401b909304831694810194909452600181015490911691830191909152600281018054606084019190610e1990614261565b80601f0160208091040260200160405190810160405280929190818152602001828054610e4590614261565b8015610e925780601f10610e6757610100808354040283529160200191610e92565b820191906000526020600020905b815481529060010190602001808311610e7557829003601f168201915b50505091835250506003820154602082015260048201546001600160a01b03811660408301526001600160401b03600160a01b90910481166060830152600583015416608082015260068201805460a090920191610eef90614261565b80601f0160208091040260200160405190810160405280929190818152602001828054610f1b90614261565b8015610f685780601f10610f3d57610100808354040283529160200191610f68565b820191906000526020600020905b815481529060010190602001808311610f4b57829003601f168201915b505050505081525050828583610f7e91906142fa565b6001600160401b031681518110610f9757610f9761431a565b60200260200101819052508080610fad90614330565b915050610d85565b5095945050505050565b610fc761301e565b6000828152600260205260409020546001600160a01b03166110225760405162461bcd60e51b8152602060048201526014602482015273151bdad95b88191bd95cc81b9bdd08195e1a5cdd60621b6044820152606401610b1e565b6000828152600f6020526040902061103a828261439c565b505050565b600080341161109f5760405162461bcd60e51b815260206004820152602660248201527f4d75737420617474616368206465706f73697420746f20637265617465206120604482015265626174746c6560d01b6064820152608401610b1e565b60008261ffff161180156110b85750600a8261ffff1611155b6110d45760405162461bcd60e51b8152600401610b1e9061445b565b600c546000906110f590600160801b90046001600160401b031660016142da565b6040805161010080820183526001600160401b0384811680845233602080860191825260ff8b81168789019081523460608901908152600060808a0181815260a08b01828152428a1660c08d0190815260e08d0184815299845260129097529b90912099518a54965193519089166001600160e01b031990971696909617600160401b6001600160a01b03909416939093029290921760ff60e01b1916600160e01b9590931694909402919091178755915160018088019190915591516002909601805497519151935161ffff1990981696151561ff001916969096179015159094029390931771ffffffffffffffffffffffffffffffff00001916620100009183169190910267ffffffffffffffff60501b191617600160501b9482169490940293909317909155600c80549394509092909160109161123f918591600160801b9004166142da565b92506101000a8154816001600160401b0302191690836001600160401b0316021790555061126c3361304b565b506040805160ff8516815234602082015233916001600160401b038416917f8fe7c68e511f25d9c45a75662b097b038e544d62f75adc7ae5d07a85ab49574a91015b60405180910390a392915050565b6001600160a01b0382166112e657604051633250574960e11b815260006004820152602401610b1e565b60006112f38383336130ff565b9050836001600160a01b0316816001600160a01b031614611341576040516364283d7b60e01b81526001600160a01b0380861660048301526024820184905282166044820152606401610b1e565b50505050565b60008034116113a65760405162461bcd60e51b815260206004820152602560248201527f4d75737420617474616368206465706f73697420746f206372656174652061206044820152640dac2e8c6d60db1b6064820152608401610b1e565b6001600160a01b03831633036113fe5760405162461bcd60e51b815260206004820152601960248201527f43616e6e6f74206368616c6c656e676520796f757273656c66000000000000006044820152606401610b1e565b600080604051806060016040528060405180604001604052806006815260200165626174746c6560d01b8152508152602001604051806040016040528060048152602001636c6f766560e01b8152508152602001604051806040016040528060078152602001666d79737465727960c81b815250815250905060005b6003811015611507578181600381106114955761149561431a565b60200201516040516020016114aa919061449e565b60405160208183030381529060405280519060200120856040516020016114d1919061449e565b60405160208183030381529060405280519060200120036114f55760019250611507565b806114ff816144ba565b91505061147a565b50816115495760405162461bcd60e51b8152602060048201526011602482015270496e76616c69642067616d65206d6f646560781b6044820152606401610b1e565b600c54600090611563906001600160401b031660016142da565b60408051610120810182526001600160401b038084168083523360208085019182526001600160a01b038d8116868801908152606087018e8152346080890152600060a0890181905242881660c08a015260e0890181905289518086018b528181526101008a01529586526010909352969093208551815493518516600160401b026001600160e01b03199094169516949094179190911783559351600183018054919092166001600160a01b0319909116179055915192935091600282019061162d908261439c565b506080820151600382015560a082015160048201805460c08501516001600160a01b039093166001600160e01b031990911617600160a01b6001600160401b039384160217905560e083015160058301805467ffffffffffffffff19169190921617905561010082015160068201906116a6908261439c565b5050600c8054600192506000906116c79084906001600160401b03166142da565b92506101000a8154816001600160401b0302191690836001600160401b031602179055506116f43361304b565b50856001600160a01b0316336001600160a01b0316826001600160401b03167f456002a7c4c83f93f0da7d0efb321068cbe739c1da413cb957d0ceda0a9a7d7588346040516117449291906144d3565b60405180910390a495945050505050565b6010602052600090815260409020805460018201546002830180546001600160401b03841694600160401b9094046001600160a01b0390811694931692919061179d90614261565b80601f01602080910402602001604051908101604052809291908181526020018280546117c990614261565b80156118165780601f106117eb57610100808354040283529160200191611816565b820191906000526020600020905b8154815290600101906020018083116117f957829003601f168201915b50505050600383015460048401546005850154600686018054959693956001600160a01b0384169550600160a01b9093046001600160401b039081169492169261185f90614261565b80601f016020809104026020016040519081016040528092919081815260200182805461188b90614261565b80156118d85780601f106118ad576101008083540402835291602001916118d8565b820191906000526020600020905b8154815290600101906020018083116118bb57829003601f168201915b5050505050905089565b60006118ed836121a6565b821061191e5760405163295f44f760e21b81526001600160a01b038416600482015260248101839052604401610b1e565b506001600160a01b03919091166000908152600660209081526040808320938352929052205490565b6001600160401b0380841660008181526010602052604081208054919390929116146119855760405162461bcd60e51b8152600401610b1e9061429b565b60048101546001600160a01b0316156119da5760405162461bcd60e51b815260206004820152601760248201527613585d18da08185b1c9958591e4818dbdb5c1b195d1959604a1b6044820152606401610b1e565b80546001600160a01b03858116600160401b909204161480611a0b575060018101546001600160a01b038581169116145b611a625760405162461bcd60e51b815260206004820152602260248201527f57696e6e6572206d7573742062652061206d61746368207061727469636970616044820152611b9d60f21b6064820152608401610b1e565b600a546001600160a01b03163314611ad05760405162461bcd60e51b815260206004820152602b60248201527f4f6e6c792074686520636f6e7472616374206f776e65722063616e207265736f60448201526a6c7665206d61746368657360a81b6064820152608401610b1e565b6004810180546001600160a01b0319166001600160a01b03861617905560058101805467ffffffffffffffff1916426001600160401b031617905560068101611b19848261439c565b50600081600301546002611b2d91906144f5565b600c549091506000906103e890611b4e90600160c01b900460ff16846144f5565b611b589190614522565b90506000611b668284614536565b6040519091506001600160a01b0388169082156108fc029083906000818181858888f19350505050158015611b9f573d6000803e3d6000fd5b50866001600160a01b0316886001600160401b03167fb2dd2e0920279a29596e37939857620dccccd479fb053fedd12caebc5a0debb48389604051611be5929190614549565b60405180910390a3506001979650505050505050565b611c03613a37565b6001600160401b038083166000908152601060209081526040808320815161012081018352815495861681526001600160a01b03600160401b90960486169381019390935260018101549094169082015260028301805492939192606084019190611c6d90614261565b80601f0160208091040260200160405190810160405280929190818152602001828054611c9990614261565b8015611ce65780601f10611cbb57610100808354040283529160200191611ce6565b820191906000526020600020905b815481529060010190602001808311611cc957829003601f168201915b50505091835250506003820154602082015260048201546001600160a01b03811660408301526001600160401b03600160a01b90910481166060830152600583015416608082015260068201805460a090920191611d4390614261565b80601f0160208091040260200160405190810160405280929190818152602001828054611d6f90614261565b8015611dbc5780601f10611d9157610100808354040283529160200191611dbc565b820191906000526020600020905b815481529060010190602001808311611d9f57829003601f168201915b5050505050815250509050826001600160401b031681600001516001600160401b031614610a105760405162461bcd60e51b8152600401610b1e9061429b565b6000611e0661301e565b47611e19600a546001600160a01b031690565b6001600160a01b03166108fc829081150290604051600060405180830381858888f19350505050158015611e51573d6000803e3d6000fd5b50600191505090565b61103a8383836040518060200160405280600081525061233a565b6000611e8060085490565b8210611ea95760405163295f44f760e21b81526000600482015260248101839052604401610b1e565b60088281548110611ebc57611ebc61431a565b90600052602060002001549050919050565b6001600160401b038082166000818152601160205260408120805491939092911614611f0c5760405162461bcd60e51b8152600401610b1e90614562565b6002810154600160281b900460ff1615611f615760405162461bcd60e51b815260206004820152601660248201527514985a5908185b1c9958591e4818dbdb5c1b195d195960521b6044820152606401610b1e565b6000600a8260010154611f749190614522565b6002830154909150600090611f9190600a9063ffffffff1661458f565b611f9c9060016145b2565b611fac9063ffffffff16836144f5565b90508034101561200a5760405162461bcd60e51b8152602060048201526024808201527f4465706f73697420696e73756666696369656e7420666f7220617474656d70746044820152632066656560e01b6064820152608401610b1e565b6002830180546001919060009061202890849063ffffffff166145b2565b82546101009290920a63ffffffff818102199093169183160217909155600285015460408051919092168152602081018490523392506001600160401b038816917fc82113cf1522e8cf0f6b32405f45b2dcbbf46f6693ff85d6e90811b47428ae2a910160405180910390a3506001949350505050565b6120a761301e565b600e610adc828261439c565b6040805160e081018252600080825260208201819052918101829052606081018290526080810182905260a0810182905260c08101919091526001600160401b03828116600081815260116020908152604091829020825160e0810184528154808716808352600160401b9091046001600160a01b0316938201939093526001820154938101939093526002015463ffffffff81166060840152640100000000810460ff9081166080850152600160281b820416151560a0840152600160301b900490931660c08201529114610a105760405162461bcd60e51b8152600401610b1e90614562565b6000610a1082612fd8565b60006001600160a01b0382166121d2576040516322718ad960e21b815260006004820152602401610b1e565b506001600160a01b031660009081526003602052604090205490565b6121f661301e565b61220060006131d4565b565b606060018054610a2590614261565b610adc338383613226565b6040805161010081018252600080825260208201819052918101829052606081018290526080810182905260a0810182905260c0810182905260e08101919091526001600160401b038083166000818152601260209081526040918290208251610100808201855282548088168084526001600160a01b03600160401b8304169584019590955260ff600160e01b9091048116958301959095526001830154606083015260029092015480851615156080830152918204909316151560a0840152620100008104851660c0840152600160501b900490931660e08201529114610a105760405162461bcd60e51b815260206004820152601060248201526f10985d1d1b19481b9bdd08199bdd5b9960821b6044820152606401610b1e565b6123458484846112bc565b61134133858585856132c5565b6001600160401b0380841660008181526011602052604081208054919390929116146123905760405162461bcd60e51b8152600401610b1e90614562565b6002810154600160281b900460ff16156123e55760405162461bcd60e51b815260206004820152601660248201527514985a5908185b1c9958591e4818dbdb5c1b195d195960521b6044820152606401610b1e565b600a546001600160a01b031633146124525760405162461bcd60e51b815260206004820152602a60248201527f4f6e6c792074686520636f6e7472616374206f776e65722063616e20636f6d706044820152696c65746520726169647360b01b6064820152608401610b1e565b60018101546002820154600091600a91612472919063ffffffff166144f5565b61247c9190614522565b826001015461248b91906145cf565b600283015490915060329081906124a99063ffffffff1660036145e2565b63ffffffff1610156124e25760028301546124cb9063ffffffff1660036145e2565b6124db9063ffffffff1682614536565b90506124e6565b5060145b600060646124f483856144f5565b6124fe9190614522565b9050600061250c8285614536565b60028601805465ff00000000001916600160281b17905585546040519192506001600160a01b03600160401b909104169083156108fc029084906000818181858888f19350505050158015612565573d6000803e3d6000fd5b506040516001600160a01b0389169082156108fc029083906000818181858888f1935050505015801561259c573d6000803e3d6000fd5b50845460408051848152602081018490526001600160a01b03600160401b9093048316928b16916001600160401b038d16917fb5b5d6adbb1ba19a0f0c2df6cf856638b0ae5ba5a49e145c158deec78eadbf95910160405180910390a450600198975050505050505050565b600c5460609083906001600160401b03600160401b909104811690821611156126405750600c54600160401b90046001600160401b03165b600061264c84836142da565b600c549091506001600160401b03600160401b909104811690821611156126825750600c54600160401b90046001600160401b03165b600061268e83836142fa565b6001600160401b03166001600160401b038111156126ae576126ae613d27565b60405190808252806020026020018201604052801561271557816020015b6040805160e08101825260008082526020808301829052928201819052606082018190526080820181905260a0820181905260c082015282526000199092019101816126cc5790505b509050825b826001600160401b0316816001600160401b03161015610fb557601160006127438360016142da565b6001600160401b0390811682526020808301939093526040918201600020825160e081018452815480841682526001600160a01b03600160401b909104169481019490945260018101549284019290925260029091015463ffffffff8116606084015260ff640100000000820481166080850152600160281b820416151560a0840152600160301b90041660c0820152826127de86846142fa565b6001600160401b0316815181106127f7576127f761431a565b6020026020010181905250808061280d90614330565b91505061271a565b6000818152600260205260409020546060906001600160a01b031661287c5760405162461bcd60e51b815260206004820152601f60248201527f55524920717565727920666f72206e6f6e6578697374656e7420746f6b656e006044820152606401610b1e565b6000828152600f60205260408120805461289590614261565b80601f01602080910402602001604051908101604052809291908181526020018280546128c190614261565b801561290e5780601f106128e35761010080835404028352916020019161290e565b820191906000526020600020905b8154815290600101906020018083116128f157829003601f168201915b505050505090506000815111156129255792915050565b600e612930846133f0565b60405160200161294192919061460a565b604051602081830303815290604052915050919050565b6001600160401b0380831660008181526012602052604081208054919390929116146129b95760405162461bcd60e51b815260206004820152601060248201526f10985d1d1b19481b9bdd08199bdd5b9960821b6044820152606401610b1e565b600281015460ff1615612a0e5760405162461bcd60e51b815260206004820152601860248201527f426174746c6520616c726561647920636f6d706c6574656400000000000000006044820152606401610b1e565b600a546001600160a01b03163314612a7c5760405162461bcd60e51b815260206004820152602b60248201527f4f6e6c792074686520636f6e7472616374206f776e65722063616e207265736f60448201526a6c766520626174746c657360a81b6064820152608401610b1e565b600281018054600161ffff199091166101008615150217811767ffffffffffffffff60501b1916600160501b426001600160401b03160217909155810154600c546000906103e890612ad99060ff600160c01b90910416846144f5565b612ae39190614522565b90506000612af18284614536565b90508515612b3a578354604051600160401b9091046001600160a01b0316906108fc8315029083906000818181858888f19350505050158015612b38573d6000803e3d6000fd5b505b835460408051881515815260208101849052600160401b9092046001600160a01b0316916001600160401b038a16917f832eb25f3e4726d441e879e57a19fb86e6c039e0ef8bf21b3707962502bb6b78910160405180910390a35060019695505050505050565b6000803411612c045760405162461bcd60e51b815260206004820152602960248201527f4d75737420617474616368206465706f73697420746f206372656174652061206044820152681c985a59081c1bdbdb60ba1b6064820152608401610b1e565b60008260ff16118015612c1b5750600a8260ff1611155b612c375760405162461bcd60e51b8152600401610b1e9061445b565b600c54600090612c5890600160401b90046001600160401b031660016142da565b6040805160e0810182526001600160401b038084168083523360208085019182523485870190815260006060870181815260ff808e1660808a0190815260a08a01848152428a1660c08c019081529885526011909652999092209751885495516001600160a01b0316600160401b9081026001600160e01b03199097169189169190911795909517885591516001888101919091559151600290970180549851935195518716600160301b026dffffffffffffffff00000000000019961515600160281b02969096166dffffffffffffffffff000000000019949092166401000000000264ffffffffff1990991663ffffffff989098169790971797909717919091169590951791909117909255600c80549495509293600892612d8292869291909104166142da565b92506101000a8154816001600160401b0302191690836001600160401b03160217905550336001600160a01b0316816001600160401b03167f26f89054fd5c76bfc307e6c5dd8a234d1f887eb61c84f2bc8d5345ea4b07955234866040516112ae92919091825260ff16602082015260400190565b6001600160a01b03918216600090815260056020908152604080832093909416825291909152205460ff1690565b600033612e3181612f54565b612e7d5760405162461bcd60e51b815260206004820152601b60248201527f416c726561647920636c61696d656420746f6461792773204e465400000000006044820152606401610b1e565b6000612e8c6201518042614522565b6001600160a01b0383166000908152600d60205260408120829055600b805492935090919082612ebb836144ba565b919050559050612ecb8382613482565b80836001600160a01b03167f28f541aa7b1893603a8bd4c83d87c49327a2edacb97759be0b41095c4c76603c84604051612f0791815260200190565b60405180910390a39392505050565b612f1e61301e565b6001600160a01b038116612f4857604051631e4fbdf760e01b815260006004820152602401610b1e565b612f51816131d4565b50565b600080612f646201518042614522565b6001600160a01b039093166000908152600d60205260409020549290921092915050565b60006001600160e01b031982166380ac58cd60e01b1480612fb957506001600160e01b03198216635b5e139f60e01b145b80610a1057506301ffc9a760e01b6001600160e01b0319831614610a10565b6000818152600260205260408120546001600160a01b031680610a1057604051637e27328960e01b815260048101849052602401610b1e565b61103a838383600161349c565b600a546001600160a01b031633146122005760405163118cdaa760e01b8152336004820152602401610b1e565b600061305682612f54565b156130f757600061306a6201518042614522565b6001600160a01b0384166000908152600d60205260408120829055600b805492935090919082613099836144ba565b9190505590506130a98482613482565b80846001600160a01b03167f28f541aa7b1893603a8bd4c83d87c49327a2edacb97759be0b41095c4c76603c846040516130e591815260200190565b60405180910390a35060019392505050565b506000919050565b60008061310d8585856135a2565b90506001600160a01b03811661316a5761316584600880546000838152600960205260408120829055600182018355919091527ff3f7a9fe364faab93b216da50a3214154f22a0a2b415b23a84c8169e8b636ee30155565b61318d565b846001600160a01b0316816001600160a01b03161461318d5761318d818561369b565b6001600160a01b0385166131a9576131a48461371c565b6131cc565b846001600160a01b0316816001600160a01b0316146131cc576131cc85856137cb565b949350505050565b600a80546001600160a01b038381166001600160a01b0319831681179093556040519116919082907f8be0079c531659141344cd1fd0a4f28419497f9722a3daafe3b4186f6b6457e090600090a35050565b6001600160a01b03821661325857604051630b61174360e31b81526001600160a01b0383166004820152602401610b1e565b6001600160a01b03838116600081815260056020908152604080832094871680845294825291829020805460ff191686151590811790915591519182527f17307eab39ab6107e8899845ad3d59bd9653f200f220920489ca2b5937696c31910160405180910390a3505050565b6001600160a01b0383163b156133e957604051630a85bd0160e11b81526001600160a01b0384169063150b7a0290613307908890889087908790600401614691565b6020604051808303816000875af1925050508015613342575060408051601f3d908101601f1916820190925261333f918101906146c4565b60015b6133ab573d808015613370576040519150601f19603f3d011682016040523d82523d6000602084013e613375565b606091505b5080516000036133a357604051633250574960e11b81526001600160a01b0385166004820152602401610b1e565b805181602001fd5b6001600160e01b03198116630a85bd0160e11b146133e757604051633250574960e11b81526001600160a01b0385166004820152602401610b1e565b505b5050505050565b606060006133fd8361381b565b60010190506000816001600160401b0381111561341c5761341c613d27565b6040519080825280601f01601f191660200182016040528015613446576020820181803683370190505b5090508181016020015b600019016f181899199a1a9b1b9c1cb0b131b232b360811b600a86061a8153600a850494508461345057509392505050565b610adc8282604051806020016040528060008152506138f3565b80806134b057506001600160a01b03821615155b156135725760006134c084612fd8565b90506001600160a01b038316158015906134ec5750826001600160a01b0316816001600160a01b031614155b80156134ff57506134fd8184612df7565b155b156135285760405163a9fbf51f60e01b81526001600160a01b0384166004820152602401610b1e565b81156135705783856001600160a01b0316826001600160a01b03167f8c5be1e5ebec7d5bd14f71427d1e84f3dd0314c0f7b2291e5b200ac8c7c3b92560405160405180910390a45b505b5050600090815260046020526040902080546001600160a01b0319166001600160a01b0392909216919091179055565b6000828152600260205260408120546001600160a01b03908116908316156135cf576135cf81848661390b565b6001600160a01b0381161561360d576135ec60008560008061349c565b6001600160a01b038116600090815260036020526040902080546000190190555b6001600160a01b0385161561363c576001600160a01b0385166000908152600360205260409020805460010190555b60008481526002602052604080822080546001600160a01b0319166001600160a01b0389811691821790925591518793918516917fddf252ad1be2c89b69c2b068fc378daa952ba7f163c4a11628f55a4df523b3ef91a4949350505050565b60006136a6836121a6565b6000838152600760209081526040808320546001600160a01b03881684526006909252909120919250908183146136fd57600083815260208281526040808320548584528184208190558352600790915290208290555b6000938452600760209081526040808620869055938552525081205550565b60085460009061372e90600190614536565b600083815260096020526040812054600880549394509092849081106137565761375661431a565b9060005260206000200154905080600883815481106137775761377761431a565b60009182526020808320909101929092558281526009909152604080822084905585825281205560088054806137af576137af6146e1565b6001900381819060005260206000200160009055905550505050565b600060016137d8846121a6565b6137e29190614536565b6001600160a01b039093166000908152600660209081526040808320868452825280832085905593825260079052919091209190915550565b60008072184f03e93ff9f4daa797ed6e38ed64bf6a1f0160401b831061385a5772184f03e93ff9f4daa797ed6e38ed64bf6a1f0160401b830492506040015b6d04ee2d6d415b85acef81000000008310613886576d04ee2d6d415b85acef8100000000830492506020015b662386f26fc1000083106138a457662386f26fc10000830492506010015b6305f5e10083106138bc576305f5e100830492506008015b61271083106138d057612710830492506004015b606483106138e2576064830492506002015b600a8310610a105760010192915050565b6138fd838361396f565b61103a3360008585856132c5565b6139168383836139d4565b61103a576001600160a01b03831661394457604051637e27328960e01b815260048101829052602401610b1e565b60405163177e802f60e01b81526001600160a01b038316600482015260248101829052604401610b1e565b6001600160a01b03821661399957604051633250574960e11b815260006004820152602401610b1e565b60006139a7838360006130ff565b90506001600160a01b0381161561103a576040516339e3563760e11b815260006004820152602401610b1e565b60006001600160a01b038316158015906131cc5750826001600160a01b0316846001600160a01b03161480613a0e5750613a0e8484612df7565b806131cc5750506000908152600460205260409020546001600160a01b03908116911614919050565b604080516101208101825260008082526020820181905291810182905260608082018190526080820183905260a0820183905260c0820183905260e082019290925261010081019190915290565b6001600160e01b031981168114612f5157600080fd5b600060208284031215613aad57600080fd5b8135613ab881613a85565b9392505050565b60005b83811015613ada578181015183820152602001613ac2565b50506000910152565b60008151808452613afb816020860160208601613abf565b601f01601f19169290920160200192915050565b602081526000613ab86020830184613ae3565b600060208284031215613b3457600080fd5b5035919050565b80356001600160a01b0381168114613b5257600080fd5b919050565b60008060408385031215613b6a57600080fd5b613b7383613b3b565b946020939093013593505050565b80356001600160401b0381168114613b5257600080fd5b600060208284031215613baa57600080fd5b613ab882613b81565b60008060408385031215613bc657600080fd5b613bcf83613b81565b9150613bdd60208401613b81565b90509250929050565b80516001600160401b0316825260006101206020830151613c1260208601826001600160a01b03169052565b506040830151613c2d60408601826001600160a01b03169052565b506060830151816060860152613c4582860182613ae3565b9150506080830151608085015260a0830151613c6c60a08601826001600160a01b03169052565b5060c0830151613c8760c08601826001600160401b03169052565b5060e0830151613ca260e08601826001600160401b03169052565b506101008084015185830382870152613cbb8382613ae3565b9695505050505050565b6000602080830181845280855180835260408601915060408160051b870101925083870160005b82811015613d1a57603f19888603018452613d08858351613be6565b94509285019290850190600101613cec565b5092979650505050505050565b634e487b7160e01b600052604160045260246000fd5b60006001600160401b0380841115613d5757613d57613d27565b604051601f8501601f19908116603f01168101908282118183101715613d7f57613d7f613d27565b81604052809350858152868686011115613d9857600080fd5b858560208301376000602087830101525050509392505050565b600082601f830112613dc357600080fd5b613ab883833560208501613d3d565b60008060408385031215613de557600080fd5b8235915060208301356001600160401b03811115613e0257600080fd5b613e0e85828601613db2565b9150509250929050565b600060208284031215613e2a57600080fd5b813561ffff81168114613ab857600080fd5b600080600060608486031215613e5157600080fd5b613e5a84613b3b565b9250613e6860208501613b3b565b9150604084013590509250925092565b60008060408385031215613e8b57600080fd5b613e9483613b3b565b915060208301356001600160401b03811115613e0257600080fd5b60006101206001600160401b03808d16845260018060a01b03808d166020860152808c166040860152826060860152613eea8386018c613ae3565b608086018b905290891660a086015287821660c086015290861660e08501528381036101008501529050613f1e8185613ae3565b9c9b505050505050505050505050565b600080600060608486031215613f4357600080fd5b613f4c84613b81565b9250613f5a60208501613b3b565b915060408401356001600160401b03811115613f7557600080fd5b613f8186828701613db2565b9150509250925092565b602081526000613ab86020830184613be6565b600060208284031215613fb057600080fd5b81356001600160401b03811115613fc657600080fd5b6131cc84828501613db2565b80516001600160401b0390811683526020808301516001600160a01b0316908401526040808301519084015260608083015163ffffffff169084015260808083015160ff169084015260a08083015115159084015260c09182015116910152565b60e08101610a108284613fd2565b60006020828403121561405357600080fd5b613ab882613b3b565b80358015158114613b5257600080fd5b6000806040838503121561407f57600080fd5b61408883613b3b565b9150613bdd6020840161405c565b81516001600160401b031681526020808301516001600160a01b03169082015260408083015160ff16908201526060808301519082015260808083015115159082015260a0808301516101008301916140f29084018215159052565b5060c083015161410d60c08401826001600160401b03169052565b5060e083015161412860e08401826001600160401b03169052565b5092915050565b6000806000806080858703121561414557600080fd5b61414e85613b3b565b935061415c60208601613b3b565b92506040850135915060608501356001600160401b0381111561417e57600080fd5b8501601f8101871361418f57600080fd5b61419e87823560208401613d3d565b91505092959194509250565b6020808252825182820181905260009190848201906040850190845b818110156141ec576141d9838551613fd2565b9284019260e092909201916001016141c6565b50909695505050505050565b6000806040838503121561420b57600080fd5b61408883613b81565b60006020828403121561422657600080fd5b813560ff81168114613ab857600080fd5b6000806040838503121561424a57600080fd5b61425383613b3b565b9150613bdd60208401613b3b565b600181811c9082168061427557607f821691505b60208210810361429557634e487b7160e01b600052602260045260246000fd5b50919050565b6020808252600f908201526e13585d18da081b9bdd08199bdd5b99608a1b604082015260600190565b634e487b7160e01b600052601160045260246000fd5b6001600160401b03818116838216019080821115614128576141286142c4565b6001600160401b03828116828216039080821115614128576141286142c4565b634e487b7160e01b600052603260045260246000fd5b60006001600160401b0380831681810361434c5761434c6142c4565b6001019392505050565b601f82111561103a57600081815260208120601f850160051c8101602086101561437d5750805b601f850160051c820191505b818110156133e757828155600101614389565b81516001600160401b038111156143b5576143b5613d27565b6143c9816143c38454614261565b84614356565b602080601f8311600181146143fe57600084156143e65750858301515b600019600386901b1c1916600185901b1785556133e7565b600085815260208120601f198616915b8281101561442d5788860151825594840194600190910190840161440e565b508582101561444b5787850151600019600388901b60f8161c191681555b5050505050600190811b01905550565b60208082526023908201527f446966666963756c7479206d757374206265206265747765656e203120616e6460408201526202031360ec1b606082015260800190565b600082516144b0818460208701613abf565b9190910192915050565b6000600182016144cc576144cc6142c4565b5060010190565b6040815260006144e66040830185613ae3565b90508260208301529392505050565b8082028115828204841417610a1057610a106142c4565b634e487b7160e01b600052601260045260246000fd5b6000826145315761453161450c565b500490565b81810381811115610a1057610a106142c4565b8281526040602082015260006131cc6040830184613ae3565b60208082526013908201527214985a59081c1bdbdb081b9bdd08199bdd5b99606a1b604082015260600190565b600063ffffffff808416806145a6576145a661450c565b92169190910492915050565b63ffffffff818116838216019080821115614128576141286142c4565b80820180821115610a1057610a106142c4565b63ffffffff818116838216028082169190828114614602576146026142c4565b505092915050565b600080845461461881614261565b60018281168015614630576001811461464557614674565b60ff1984168752821515830287019450614674565b8860005260208060002060005b8581101561466b5781548a820152908401908201614652565b50505082870194505b505050508351614688818360208801613abf565b01949350505050565b6001600160a01b0385811682528416602082015260408101839052608060608201819052600090613cbb90830184613ae3565b6000602082840312156146d657600080fd5b8151613ab881613a85565b634e487b7160e01b600052603160045260246000fdfea26469706673582212202ddd138f62274fbd47f20c109e9313225c5b3711422f3d3e8aed58d9741524f064736f6c63430008140033",
  "linkReferences": {},
  "deployedLinkReferences": {}
}